:020000040800F2
:10000000802F0020E1010008B1560008B356000817
:10001000B7560008BB560008BF5600080000000095
:10002000000000000000000000000000290100089E
:10003000C3560008000000007D010008C5560008F6
:10004000FB010008FB010008FB010008FB010008A0
:10005000FB010008FB010008A15700089F5700089A
:10006000A3570008A5570008A7570008FB01000880
:10007000FB010008FB010008FB010008FB01000870
:10008000FB010008FB010008FB010008FB01000860
:10009000FB010008FB010008A9570008FB0100084C
:1000A000FB010008FB010008FB010008FB01000840
:1000B000FB01000889570008FB010008FB0100084C
:1000C000FB010008FB010008FB010008FB01000820
:1000D00013570008FB010008FB010008AB5700089C
:1000E000FB010008FB010008FB010008FB01000800
:1000F000FB010008FB010008FB010008FB010008F0
:10010000D7560008FB010008FB010008FB010008AE
:10011000FB010008DFF80CD00AF08AFA004800471B
:1001200029500008802F00202A4B19680868B0E881
:10013000F04F80F30988BFF36F8F4FF0000080F31A
:10014000118870470000000006480068006880F3CE
:10015000088862B661B6BFF34F8FBFF36F8F00DFC1
:1001600000BF00BF08ED00E0DFF80C00016841F4BB
:1001700070010160704700BF88ED00E0EFF3098077
:10018000BFF36F8F134B1A681EF0100F08BF20EDDE
:10019000108A20E9F04F106008B44FF0500080F34F
:1001A0001188BFF34F8FBFF36F8F09F053F84FF0F3
:1001B000000080F3118808BC19680868B0E8F04FA7
:1001C0001EF0100F08BFB0EC108A80F30988BFF34F
:1001D0006F8F7047E4000020EFF305807047000048
:1001E0000648804706480047FEE7FEE7FEE7FEE7D1
:1001F000FEE7FEE7FEE7FEE7FEE7FEE70303000893
:10020000150100080FB500200290019000908E4863
:10021000006840F480308C49086000BF8A4800685C
:10022000C0F3404001900098401C00909DF80400ED
:1002300018B90098B0F5005FF0D183480068C0F3AA
:10024000404001909DF8040018B98048804908603A
:100250000FBD8048006820F007007E49086008460E
:10026000006840F0030008607748406876494860BD
:100270000846406840F4005048600846406840F432
:10028000A060486008464068734908406E4948606D
:100290000846006C20F0010008640846406803909E
:1002A000039840F480300390039840F400300390AA
:1002B0006A49039808430390634903984860029889
:1002C00008640846006840F08070086000BF5E481F
:1002D000006800F000700028F9D05B48406820F00A
:1002E0000300594948600846406840F002004860F1
:1002F00000BF5548406800F00C000828F9D100BF45
:10030000A6E710B55648006840F4700054490860EC
:100310004D48006840F001004B49086008464068BD
:100320005049084048494860084600684E4908401E
:10033000454908600846006820F4802008600846A7
:10034000406845490840404948604FF46050C862E1
:1003500000200864454888600846C06940F0805025
:10036000C8610846C06920F08050C86139480068FB
:1003700040F08000374908600846006820F010000F
:100380000860FFF73FFF4FF0006035498039086093
:1003900010BD10B50021002000222B4B5B6803F03C
:1003A0000C0121B1042906D008293CD107E0274BD4
:1003B000274C23603BE0254B254C236037E0224B44
:1003C0005B68264C03EA04001F4B5B6803F4803231
:1003D00000F000631BB9022303EB904004E04FF4EC
:1003E000F873C3EB9043581C72B9174B1B6C03F0A6
:1003F000010323B11E4B4343154C236012E0134B02
:100400004343134C23600DE00F4B5B6803F4003350
:1004100023B1174B43430E4C236003E00B4B434384
:100420000B4C236003E0094B094C236000BF00BF65
:10043000054B5B68C3F303130E4CE15C044B1B6874
:10044000CB40034C236010BD0010024000127A0024
:100450000000002000200240FFFFC0F700003C0821
:1004600088ED00E00CC07FF8FFFFF6FE00009F045F
:1004700000093D00A4A8000810B5FB49FB48FC4A50
:1004800012689047F848006810BD10B54FF48050CE
:1004900002F0C9F810BDF748006840F48070F549D3
:1004A00008607047F348006820F48070F1490860E4
:1004B0007047F048001D006840F00200ED49091D3A
:1004C00008607047EB48001D006820F00200E94911
:1004D000091D08607047E749091D096821F460217A
:1004E000E44A121D1160114609680143116070470A
:1004F000E049091D096821F40061DE4A121D1160FE
:1005000011460968014311607047DA4928310968CA
:1005100021F47001D74A283211601146096801435D
:100520001160704700B50346187810B1FFF7B3FFAC
:1005300001E0FFF7B7FF587810B1FFF7BAFF01E00D
:10054000FFF7C0FF5868FFF7C6FF9868FFF7D0FFB6
:10055000D868FFF7DAFF00BD0021017041704160EB
:100560008160C1607047C348001D006840F0010011
:10057000C049091D08607047BE48001D006820F092
:100580000100BC49091D08607047BA48001D006899
:1005900040F48070B749091D08607047B548001DD8
:1005A000006820F48070B349091D086070478028F6
:1005B00005D8B04909680143AE4A116006E0AD496B
:1005C000543109680143AB4A5432116070478028A6
:1005D00005D8A84909688143A64A116006E0A549E3
:1005E000543109688143A34A54321160704701466F
:1005F00001290CD19F4850300068D0B99D48001D9A
:10060000006840F004009B4A121D106011E00229AE
:100610000FD19848001D006800F0040038B19548DB
:100620005030006808B1002070470120FCE700202E
:10063000FAE70020F8E70146B1F5A00F07D18D4891
:10064000001D006808438B4A121D106017E06FF40C
:10065000A000814207D18748001D00680840854AF4
:10066000121D10600BE0B1F5800F08D18148001D0C
:100670000068084008B1012070470020FCE7002016
:10068000FAE77C49096821F460417A4A1160114611
:100690000968014311607047B0F5006F05D17549D5
:1006A00009680143734A11601BE06FF400618842DE
:1006B00005D17049096801406E4A116011E0B0F53A
:1006C000805F05D16B49096801436A4A116008E0FF
:1006D0006FF48051884204D1664909680140654A37
:1006E0001160704730B50A460021092816DC014622
:1006F000604B0C331B6801EB41050724AC40A3435E
:100700005C4C0C34236023461B6801EB410402FA65
:1007100004F42343574C0C34236028E0112817DCE1
:10072000A0F10A01534B08331B6801EB4105072474
:10073000AC40A3434F4C0834236023461B6801EBB5
:10074000410402FA04F423434A4C083423600EE0C7
:10075000484B58331B6801EB41050724AC40A343C9
:10076000444C5834236023461B681343236030BD38
:1007700010B5052915DC3F4A3032126801EB8104BF
:100780001F23A3409A433B4B30331A601A4612682A
:1007900001EB810300FA03F31A43364B30331A603E
:1007A00032E00B2917DC334A2C3212688B1F03EB23
:1007B00083041F23A3409A432E4B2C331A601A46FE
:1007C00012688B1F03EB830300FA03F31A43294BD0
:1007D0002C331A6018E0274A28321268A1F10C0362
:1007E00003EB83041F23A3409A43224B28331A6050
:1007F0001A461268A1F10C0303EB830300FA03F31A
:100800001A431C4B28331A6010BDB0F5801F07D166
:100810001849091D09680143164A121D116021E09B
:100820006FF48011884207D11249091D09680140FF
:10083000104A121D116015E0B0F5004F07D10D49A7
:10084000091D096801430B4A121D11600AE06FF48B
:100850000041884206D10749091D09680140054A3F
:10086000121D1160704700000400002068F2FF1F95
:100870000C00002004080240FA48006880B270476B
:10088000F8484838006840F48060F6494839086004
:100890007047F4484838006820F48060F1494839CE
:1008A00008607047EF494439096821F4E041ED4A96
:1008B000443A1160114609680143116070470146CE
:1008C000B1F5021F07D1E748443800680843E54AFC
:1008D000443A106017E06FF40210814207D1E148FA
:1008E000443800680840DF4A443A10600BE0B1F534
:1008F000001F08D1DB4844380068084008B10120D7
:1009000070470020FCE70020FAE710B5D54A143AFA
:10091000126801EB81041F23A3409A43D14B143B7F
:100920001A601A46126801EB810300FA03F31A43B6
:10093000CC4B143B1A6010BDCA491439096821F424
:100940004011C84A143A1160114609680143116008
:10095000704708B500220092C24A4C3A0092009AB1
:1009600002440092009A116008BD08B501460020BB
:100970000090BC484C38009001F12800009A1044C7
:1009800000900098006880B208BDB0F5007F10D1DB
:10099000B44A483A12680243B24B483B1A601A46BE
:1009A000126822F01F021A601A4612680A431A607F
:1009B00007E0AC4A483A126822F40072A94B483B5F
:1009C0001A607047A749483909680143A54A483A5F
:1009D00011607047A349483909688143A14A483AE0
:1009E000116070479F492839086070479D49243934
:1009F000086070479B484438006840F400009949FB
:100A00004439086000BF9848006840F48060964907
:100A1000086000BF704793484438006820F4000025
:100A200090494439086000BF8F48006820F4806016
:100A30008D49086000BF704701468A484C380068FD
:100A4000084008B1012070470020FCE70346012B55
:100A500008D184484C380068084008B1012070472C
:100A60000020FCE77F480C300068104008B10120EE
:100A7000F5E70020F3E77B494C3909688143794A5F
:100A80004C3A1160704777494C3909688143754A7F
:100A90004C3A1160704773480C30006840F40060B5
:100AA00070490C31086000BF6F48006840F48060F6
:100AB0006D49086000BF70476A480C30006820F438
:100AC000006068490C31086000BF6748006820F486
:100AD00080606549086000BF704762480C3000685C
:100AE00040F480605F490C31086070475D480C300D
:100AF000006820F480605B490C31086070475948F9
:100B00000C30006820F0100056490C310860704726
:100B100054480C30006840F0100052490C31086015
:100B2000704750480C30006840F008004D490C31C7
:100B3000086070474B480C30006820F008004949B5
:100B40000C310860704747480C30006840F00400E2
:100B500044490C310860704742480C30006820F06E
:100B6000040040490C31086070473E490C31096867
:100B700021F003013B4A0C32116011460968014320
:100B80001160704737491031096821F00801354A72
:100B9000103211601146096801431160704700B5B9
:100BA0000346187810B1FFF776FF01E0FFF784FFE6
:100BB000587810B1FFF791FF01E0FFF797FF9878A1
:100BC00020B14FF40070FFF7F2FC03E04FF4007027
:100BD000FFF7FDFCD87820B14FF48070FFF7E7FCF9
:100BE00003E04FF48070FFF7F2FC1879012802D17E
:100BF000FFF78EFF01E0FFF782FF587910B1FFF792
:100C000090FF01E0FFF796FF987910B1FFF79BFF87
:100C100001E0FFF7A1FF9868FFF7A7FFD868FFF78B
:100C2000B1FF00BD0021017041708170C170017180
:100C300041718171032181600021C16070470948C1
:100C40000C30006840F0800006490C3108607047A5
:100C500004480C30006820F0800002490C31086024
:100C6000704700004C080240201800400F490968F6
:100C70000F4A11400D4A1160114609680143116085
:100C8000704770B505460C4601F08CFB3DB901F08C
:100C900079FB204601F07DFBFFF731FF04E02046A1
:100CA00001F067FBFFF734FF70BD00005008024001
:100CB0000100F0FF30490143304A1160704770B5C0
:100CC000002100230F22C47804B32C4C246804F4C0
:100CD000E064C4F5E064210AC1F10403CA40447829
:100CE00004FA03F18478144021430901244C067866
:100CF000A155047804F01F050124AC4005786D115E
:100D0000AD0005F1E025C5F8004109E0047804F0E4
:100D10001F050124AC401B4D0678761145F826408E
:100D200070BD194A0A400243144B1B1F1A607047DA
:100D30001249091D09680143104A121D11607047CC
:100D40000E49091D096881430C4A121D1160704744
:100D5000042808D14FF0E021096941F004014FF067
:100D6000E022116107E04FF0E021096921F0040160
:100D70004FF0E022116170470000FA050CED00E031
:100D800000E400E080E100E080FFFF1F016821F047
:100D9000010101600021016041608160C1608C49F6
:100DA000884208D18A490839496841F00F01884AC8
:100DB000083A516059E086491431884208D1844983
:100DC0000839496841F0F001814A083A51604CE025
:100DD0007F492831884208D17D490839496841F462
:100DE00070617B4A083A51603FE079493C31884262
:100DF00008D177490839496841F47041744A083A82
:100E0000516032E072495031884208D17049083946
:100E1000496841F470216E4A083A516025E06C49F6
:100E20006431884208D16A490839496841F470013F
:100E3000674A083A516018E065497831884208D11C
:100E400063490839496841F07061614A083A516064
:100E50000BE05F498C31884207D15D490839496808
:100E600041F070415A4A083A51607047026822F4D2
:100E70008042026002680A4302607047026822F4FE
:100E80004052026002680A4302607047026822F022
:100E90002002026002680A4302607047026822F47E
:100EA0004062026002680A4302607047026822F4EE
:100EB0004072026002680A4302607047026822F0D2
:100EC0008002026002680A4302607047026822F0F2
:100ED0004002026002680A43026070474160704746
:100EE000026822F01002026002680A430260704742
:100EF000C16070478160704710B504460B462046BC
:100F00001968FFF7F7FF20465968FFF7F1FF204601
:100F10009968FFF7E5FF2046D968FFF7DFFF204615
:100F20001969FFF7D3FF20465969FFF7C7FF20462D
:100F30009969FFF7BBFF2046D969FFF7AFFF20464D
:100F4000196AFFF7A3FF2046596AFFF797FF20466B
:100F5000996AFFF78BFF10BD00210160416081603D
:100F6000C160016141618161C1610162416281626F
:100F70007047016841F0010101607047016821F08C
:100F800001010160704702680A430260704702680D
:100F90008A4302607047416070470146486880B2EA
:100FA000704702461068084008B9002070470120C9
:100FB000FCE74160704702461068084008B900200D
:100FC00070470120FCE741607047016170470000F5
:100FD0000800024001460020FE4A106820F0070089
:100FE000084310607047FB48006800F00700704736
:100FF000F848006840F01000F64908607047F5486E
:10100000006820F01000F34908607047F14800685C
:1010100040F04000EF4908607047EE48006840F03B
:101020008000EC4908607047EA48006820F08000C2
:10103000E84908607047E748006800F0800008B1A0
:10104000012070470020FCE7E249096B21EA00110A
:10105000E04A11631146096B014311637047DD4992
:10106000096B0143DB4A11637047DA49096B01439D
:10107000D84A11631146096B8143116370470146D9
:10108000D448006B084008B1012070470020FCE7FD
:10109000D148D0494860D14848607047CD48006980
:1010A00040F08000CB4908617047CB48C94988604F
:1010B000CA4888607047C748006920F40070C54975
:1010C00008617047C348006900F4007008B101204E
:1010D00070470020FCE70420BE49C96801F0010107
:1010E00009B101200EE0BB49C96801F0040109B152
:1010F000022007E0B749C96801F0100109B10320D7
:1011000000E00420704700B502460423FFF7E3FF28
:10111000034603E0FFF7DFFF0346521E012B01D118
:10112000002AF7D102B90723184600BDA949C968AA
:101130000143A84AD160704730B5044604253420E5
:10114000FFF7F4FF4FF43020FFF7DDFF0546042DD5
:1011500016D1A048006940F002009E490861084687
:101160004461006940F0400008614FF43020FFF70F
:10117000CAFF05469748006920F0020095490861BA
:10118000284630BD10B504243420FFF7CFFF4FF4BC
:101190003020FFF7B8FF0446042C15D18D480069B4
:1011A00040F004008B4908610846006940F04000A7
:1011B00008614FF43020FFF7A6FF04468548006918
:1011C00020F0040083490861204610BD70B5044634
:1011D0000D46042604F0030008B1062070BD34203B
:1011E000FFF7A4FF4FF40050FFF78DFF0646042ED3
:1011F00010D17848006940F0010076490861256007
:10120000F002FFF780FF06467248006920F00100F7
:10121000704908613046E1E76E48C06900F000405F
:1012200008B1012070470020FCE710B50424FFF747
:10123000F3FF08B1052010BD3420FFF777FF4FF40E
:101240003020FFF760FF0446042C25D1FFF72DFF67
:101250006048006940F020005E4908610846006966
:1012600040F0400008614FF43020FFF74CFF044687
:10127000042C09D13420FFF759FF5648006920F0AB
:1012800020005449086107E0072C05D05148006947
:1012900020F020004F4908612046CCE72DE9F04FAF
:1012A00005460E4617469846DDE90AABDDF8249060
:1012B0000424FFF7B1FF10B10520BDE8F08FFFF760
:1012C000F4FE3420FFF732FF4FF43020FFF71BFF0E
:1012D0000446042C21D13F48006940F010003D49EC
:1012E000086146EA070040EA080040EA090040EACF
:1012F0000A0040EA0B000C99084345EA00403849CF
:101300000860E002FFF7FFFE0446072C05D03148D5
:10131000006920F010002F4908612046CDE770B524
:1013200005460E4604243420FFF700FFE002FFF7D5
:10133000EAFE0446FFF770FF08B1052070BD042CDB
:1013400018D1FFF7B2FE2348006940F01000214990
:10135000086146EA05402249091D0860E002FFF7DE
:10136000D2FE0446072C05D01A48006920F0100070
:10137000184908612046E1E7F0B504464FF6FF76CC
:1013800037460425FFF748FF08B10520F0BDE443C8
:10139000E6B2C4F307273420FFF7C8FE4FF400502D
:1013A000FFF7B1FE0546042D27D1FFF77EFE094861
:1013B000006940F0100007490861FF2E01D1FF2F9E
:1013C00013D046EA07400649083108604FF4005040
:1013D00008E000000020024023016745AB89EFCD03
:1013E00000F8FF1FFFF78FFE0546072D05D0CB48FD
:1013F000006920F01000C94908612846C6E72DE9B8
:10140000F04105460F46164698460424FFF704FFB0
:1014100010B10520BDE8F081FFF747FE3420FFF74B
:1014200085FE4FF43020FFF76EFE0446042C19D1E0
:10143000BA48006940F01000B849086147EA060060
:1014400040EA080045EA0040B5490860E002FFF7BD
:101450005AFE0446072C05D0B048006920F0100061
:10146000AE4908612046D5E730B50424AB48C069D1
:1014700000F4FE708503FFF7CFFE08B1052030BDF4
:101480003420FFF753FE4FF43020FFF73CFE0446B4
:10149000042C3CD1FFF709FEA048006940F0200071
:1014A0009E4908610846006940F0400008614FF419
:1014B0003020FFF728FE0446042C20D13420FFF70B
:1014C00035FE9648006920F02000944908610846DE
:1014D000006940F01000086105F47F0090490C3964
:1014E00008604FF43020FFF70EFE0446072C0ED0A4
:1014F0008A48006920F010008849086107E0072C3D
:1015000005D08648006920F0200084490861204603
:10151000B5E730B504248148C06900F4FE70850346
:10152000FFF77AFE08B1052030BD3420FFF7FEFD3D
:101530004FF43020FFF7E7FD0446042C3CD1FFF7C1
:10154000B4FD7648006940F02000744908610846FF
:10155000006940F0400008614FF43020FFF7D3FDF0
:101560000446042C20D13420FFF7E0FD6B480069CD
:1015700020F02000694908610846006940F0100029
:10158000086145F0A50066490C3908604FF4302029
:10159000FFF7B9FD0446072C0ED06048006920F023
:1015A00010005E49086107E0072C05D05B48006920
:1015B00020F02000594908612046B5E75748C06926
:1015C00000F0020008B1012070470020FCE730B5B0
:1015D00004245248C06900F4FE708503FFF7EEFF53
:1015E00008B945F0A505FFF717FE08B1052030BD85
:1015F0003420FFF79BFD4FF43020FFF784FD0446B5
:10160000042C47D1FFF751FD4448006940F0200009
:10161000424908610846006940F0400008614FF403
:101620003020FFF770FD0446042C2BD13420FFF747
:101630007DFD3A48006920F02000384908610846DD
:10164000006940F01000086135480C3805604FF41F
:101650003020FFF758FD0446042C0AD13420FFF750
:1016600065FD30482E4908604FF43020FFF74BFDF0
:101670000446072C0ED02948006920F010002749A5
:10168000086107E0072C05D02448006920F02000FD
:10169000224908612046AAE72048C06980087047AF
:1016A00001461E488069084008B1012070470020AB
:1016B000FCE71A48C069C0F3872070471748C06923
:1016C000C0F3874070471548006A704713480068A8
:1016D00000F0200008B1012070470020FCE70F490E
:1016E000096901430D4A116170470C490969814339
:1016F0000A4A1161704701460848C068084008B1AD
:10170000012070470020FCE701460448C0690840FA
:1017100008B1012070470020FCE7000000200240D3
:101720000CF8FF1FCC33FFFF10B50446FE4884427F
:1017300003D1802000F077FF15E0FC48844203D1FC
:10174000801500F070FF0EE0F948844203D1401587
:1017500000F069FF07E0F748844203D1001500F06C
:1017600062FF00E010BD00BFFCE730B5014600207D
:10177000002275E00123834003EA0102002A6ED0B3
:101780000C2808D9E84B1B6845000224AC402343D1
:10179000E54C236007E0E44B1B6845000324AC40A4
:1017A0002343E14C236000F008035BB1DE4B24339C
:1017B0001B684407E50E0F24AC40A343DA4C2434E5
:1017C00023600AE0D84B20331B684407E50E0F2442
:1017D000AC40A343D44C20342360D34B1B1D1B6867
:1017E00001248440A343D04C241D23600F2801D042
:1017F0000D280AD1CC4B0C331B6845000124AC40AA
:101800002343C94C0C34236016E00E280AD1C64B82
:101810000C331B6845000224AC402343C24C0C34FB
:10182000236009E0C04B0C331B6845000324AC4027
:10183000A343BD4C0C342360BB4B08331B6801240D
:1018400084402343B84C08342360B74B2C331B68C7
:1018500045000424AC402343B34C2C342360401C8B
:1018600041FA00F3002B85D130BD30B50146002090
:10187000002268E00123834003EA0102002A61D0CC
:10188000032801D0042808D1A84B1B684500022476
:10189000AC402343A54C236007E0A44B1B684500E4
:1018A0000324AC402343A14C236000F008035BB148
:1018B0009E4B24331B684407E50E0F24AC40A34322
:1018C0009A4C243423600AE0984B20331B68440769
:1018D000E50E0F24AC40A343944C20342360934B7B
:1018E0001B1D1C68012383409C43904B1B1D1C60E7
:1018F00004280AD18D4B0C331B6845000124AC40F1
:1019000023438A4C0C34236009E0884B0C331B685A
:1019100045000324AC40A343844C0C342360834B28
:1019200008331C68012383401C43804B08331C6030
:101930007E4B2C331B6845000424AC4023437B4C76
:101940002C342360401C41FA00F3002B92D130BDAF
:1019500030B50146002000223DE00123834003EA28
:101960000102BAB3724B1B6845000324AC40234309
:101970006F4C23606E4B24331B684407E50E0F2425
:10198000AC40A3436A4C24342360694B1B1D1C6884
:10199000012383409C43664B1B1D1C60644B0C332E
:1019A0001B6845000324AC40A343614C0C34236006
:1019B000231F1C68012383401C435D4B08331C60BC
:1019C0005B4B2C331B6845000424AC402343584C2C
:1019D0002C342360401C41FA00F3002BBDD130BDF4
:1019E00030B501460020002256E00123834003EA7F
:1019F0000102002A4FD040B94E4B1B68450000241D
:101A0000AC4023434B4C236007E04A4B1B68450026
:101A10000324AC402343474C236000F008034BB140
:101A2000444B5B6A4407E50E0F24AC40A343414C92
:101A3000636208E03F4B1B6A4407E50E0F24AC408D
:101A4000A3433C4C23623B4B5C68012383409C4393
:101A5000384B5C6038B9DB6845000224AC40234356
:101A6000344CE36009E00C2807D3324BDB684500B7
:101A70000324AC40A3432F4CE3602E4B9C6801230E
:101A800083401C432B4B9C60DB6A45000424AC4024
:101A90002343284CE362401C41FA00F3002BA4D1FD
:101AA00030BD70B5014600220020002313E0012460
:101AB000844004EA01036BB18407E50EFF2404FAB5
:101AC00005F21D4C850854F8254094431A4D8608AC
:101AD00045F82640401C41FA00F4002CE7D170BDC7
:101AE00000B54FF6FF70FFF740FE4FF6FF70FFF7AF
:101AF000BCFE4FF6FF70FFF72BFF4FF6FF70FFF7AE
:101B00006FFF00BD30B50346002002F00804BCB1F1
:101B1000586A5407E50E0F24AC40A0435407E40E66
:101B200001FA04F4204309E0003402400038024086
:101B3000003C0240004002400400014058620BE0BB
:101B4000186A5407E50E0F24AC40A0435407E40E76
:101B500001FA04F42043186230BD70B5034600203A
:101B60000024186801F0030456000325B540A8437B
:101B7000550004FA05F528431860012905D01129FC
:101B800003D0022901D0122908D1586801259540B7
:101B9000A843C1F3001595402843586070BD30B587
:101BA0000B460021C16855000324AC40A1435400FA
:101BB00003FA04F42143C16030BD10B50B46002187
:101BC000816801249440A14303FA02F42143816017
:101BD00010BD30B50B460021C16A55000324AC404E
:101BE000A143540003FA04F42143C16230BDF0B5AF
:101BF00006460C46002500271FE00121A940206869
:101C000000EA0107C7B12A4630466169FFF77AFF4B
:101C10002A4630466168FFF7A0FF2A463046A16891
:101C2000FFF7BDFF2A463046E168FFF7C6FF2A46A8
:101C300030462169FFF7CDFF6D1C2068E840002881
:101C4000DBD1F0BD10B5012000F0F7FC10BD4FF660
:101C5000FF7101600021C16041600F2141610021DD
:101C600081600161704702461069084008B1012097
:101C700070470020FCE70146086980B270470246C1
:101C80005069084008B1012070470020FCE7014678
:101C9000486980B2704781617047816270470A4627
:101CA00013048361704781627047416170474269E4
:101CB0004A4042617047002241F48032C261C161F2
:101CC000C261C269C2697047F0B503461546002279
:101CD00000200BB9CA4E08E0012B01D1C94E04E027
:101CE000022B01D1C84E00E0C84E344601F0080670
:101CF00066B101F00702606A97000F26BE40B0434C
:101D0000960005FA06F6304360620BE001F0070228
:101D1000206A97000F26BE40B043960005FA06F6EB
:101D200030432062F0BD10B5B94A831052F8232029
:101D30008307DC0E3F23A3409A43B54B841043F83E
:101D400024201A46831052F823208307DB0E01FA61
:101D500003F31A43AE4B841043F8242010BD0A4607
:101D60000021AB4B1B1F1B68C3F30B010AB10143DE
:101D700000E08143A64B1B1F1960704702460020FC
:101D8000092A11D1A24B1B1F186820F400701129D9
:101D900002D140F4007003E020F0F00040EA0110AE
:101DA0009B4B1B1F186011E0082A0FD1984B1B1F7B
:101DB000186820F48070102902D140F4807002E08D
:101DC00020F00F000843924B1B1F1860704790498A
:101DD000091F496981438E4A121F516170478C491E
:101DE000091F496901438A4A121F51617047884996
:101DF000091F0862704710B5814B984201D100233A
:101E00000AE0804B984201D1012305E07E4B9842C5
:101E100001D1022300E003231A4602F00203ABB90A
:101E2000774B984207D17A4B1B1F9B690B43784C29
:101E3000241FA3611FE0734B98421CD1744B1B1FDE
:101E40009B690B43724C241FA36114E06E4B9842B4
:101E500007D16F4B1B1FDB690B436D4C241FE361E4
:101E600009E06A4B984206D1694B1B1FDB690B43A3
:101E7000674C241FE36110BD10B5614B984201D13E
:101E800000230AE05F4B984201D1012305E05E4B3D
:101E9000984201D1022300E003231A4602F0020314
:101EA000ABB9574B984207D1594B1B1F9B698B43CA
:101EB000574C241FA3611FE0524B98421CD1544B36
:101EC0001B1F9B698B43524C241FA36114E04E4B94
:101ED000984207D14E4B1B1FDB698B434C4C241F90
:101EE000E36109E0494B984206D1494B1B1FDB696E
:101EF0008B43474C241FE36110BD10B5404B984203
:101F000001D100230AE03F4B984201D1012305E0B3
:101F10003D4B984201D1022300E003231A4602F010
:101F20000203ABB9364B984207D1394B1B1F5B6A92
:101F30000B43374C241F63621FE0324B98421CD185
:101F4000334B1B1F5B6A0B43314C241F636214E04D
:101F50002D4B984207D12E4B1B1F9B6A0B432C4CD9
:101F6000241FA36209E0294B984206D1284B1B1F6E
:101F70009B6A0B43264C241FA36210BD10B5204B57
:101F8000984201D100230AE01E4B984201D101235F
:101F900005E01D4B984201D1022300E003231A46BD
:101FA00002F00203ABB9164B984207D1184B1B1F26
:101FB0005B6A8B43164C241F63621FE0114B9842EF
:101FC0001CD1134B1B1F5B6A8B43114C241F636294
:101FD00014E00D4B984207D10D4B1B1F9B6A8B439E
:101FE0000B4C241FA36209E0084B984206D1084B12
:101FF0001B1F9B6A8B43064C241FA36210BD00006D
:102000000034024000380240003C024000400240E0
:1020100004000140F948006840F00100F7490860F9
:1020200008464068F6490840F44948600846006898
:10203000F4490840F14908600846006820F480200F
:10204000086008464068F0490840EC4948604FF491
:102050006050C86200200864EC4888607047E74917
:10206000096821F48031E54A11601146096821F4BC
:1020700080211160B0F5803F05D11146096841F417
:102080008031116008E0B0F5802F05D1DB49096887
:1020900041F4A021D94A1160704701460022002373
:1020A0004A11012A02D0022A06D102E0D34803686D
:1020B00005E0D248036A02E0D048436A00BF00BF8F
:1020C00001F01F0201209040184008B10120704724
:1020D0000020FCE7F0B5002200BF0021002500240D
:1020E000C64E7668CA4F06EA0701C44E766806F403
:1020F000803501F000661EB9022606EB914104E02E
:102100004FF4F876C6EB9146711C65B9BB4E366C40
:1021100006F001061EB1BF4E01FB06F30FE0BE4EF6
:1021200001FB06F30BE0B54E766806F400361EB1EF
:10213000B84E01FB06F302E0B74E01FB06F3AF4ECB
:10214000766806F00C0222B1042A05D0082A08D1CC
:1021500005E0B14E066007E0AF4E066004E00360A4
:1021600002E0AD4E066000BF00BFA44E7668C6F325
:102170000312AA4EB45C0668E64046609F4E76683D
:10218000C6F30222A54EB45C4668E64086609B4ECC
:102190007668C6F3C222A14EB45C4668E640C660CB
:1021A000964EF66A06F00F029D4EB45C4668B6FB8A
:1021B000F4F64661914EF66AC6F3041202F00F0679
:1021C000984F37F81640B3FBF4F60661F0BD30B512
:1021D00087B000200690002400256846FFF77AFFAC
:1021E00091490098B1FBF0F04FF40051B1FBF0F4CD
:1021F00000BF3120FFF751FF05460698401C0690AE
:102200000698A04201D0002DF3D03120FFF745FF02
:1022100010B1012007B030BD0020FBE70120834949
:10222000C864704700208149C86470470146002097
:10223000724A106820F0F80040EAC1001060704750
:1022400001207A490860704700207849086070478B
:1022500030B587B000200690002400256846FFF7BF
:1022600039FF71490098B1FBF0F04FF40051B1FB18
:10227000F0F400BF2120FFF710FF05460698401C30
:1022800006900698A04201D0002DF3D02120FFF740
:1022900004FF10B1012007B030BD0020FBE710B5EE
:1022A0000A460023554C6168236C574C214023F0AB
:1022B000010308B1012802D11143034302E040EABF
:1022C000020421434D4C6160236410BD0120574935
:1022D000086670470020554908667047014600208F
:1022E000464A506820F00300084350607047434856
:1022F000406800F00C007047014600203F4A5068DB
:1023000020F0F000084350607047014600203B4A2F
:10231000506820F4E0600843506070470146002098
:10232000364A506820F4605040EAC100506070475F
:10233000324989680143314A916070472F49896861
:1023400081432E4A91607047014600202B4AD06A93
:1023500020F000500843D062704702460020274B0F
:10236000D86A20F4806020F4784010430843D86293
:10237000704701460020214AD06A20F4F8700843D3
:10238000D06270471D48C06A20F480701B49C86243
:10239000704701460020194AD06A20F00F00084318
:1023A000D062704715488030006840F00100134942
:1023B000C1F88000704711488030006820F00100AB
:1023C0000E49C1F8800070470021194A11696FF366
:1023D0000801B0F5007F02DB40F2FF1001E0C0F31E
:1023E000080040F480621143114A116170470349AB
:1023F000C9690143014AD1617047000000100240E1
:102400000CC07FF8FFFFF6FEFFFFC0F700009F043F
:1024100000003C0800093D0000127A00B4A8000842
:10242000C4A80008D4A800080020A1070000424268
:102430000070004010B504460B464FF08050FFF787
:10244000D6FFA248006840F48070A0490860A04808
:10245000006A20F005009E490862012C02D0042C7D
:1024600011D109E09A48006A40F0010098490862D9
:102470001846FFF7A9FF07E09548006A40F00500FD
:102480009349086200E000BF00BF10BD01209149E0
:102490000860704700208F49086070478C48006AC8
:1024A00000F0100008B1012070470020FCE730B5B3
:1024B00087B000200690002400256846FFF70AFE3A
:1024C00085490098B1FBF0F04FF40051B1FBF0F4F6
:1024D00000BF4120FFF7E1FD05460698401C06902D
:1024E0000698A04201D0002DF3D04120FFF7D5FD82
:1024F00010B1012007B030BD0020FBE70120754975
:102500007431086070470020724974310860704768
:1025100030B587B000200690002400256846FFF7FC
:10252000D9FD6D490098B1FBF0F04FF40051B1FBBB
:10253000F0F400BF6120FFF7B0FD05460698401C8F
:1025400006900698A04201D0002DF3D06120FFF73D
:10255000A4FD10B1012007B030BD0020FBE75C49AD
:10256000096A21F440715A4A11621146096A01430D
:1025700011627047012057493031086070470020D0
:10258000544930310860704700B503464FF0805021
:10259000FFF72DFF4D48006840F480704B490860FC
:1025A0004B48406B20F00700494948630846406BA0
:1025B0001843486300BD4648406B40F4806044497E
:1025C00048630846406B20F4806048637047404889
:1025D000406B40F040003E49486370473C48406BC8
:1025E00020F040003A49486370473949496901433E
:1025F000374A51617047364949698143344A5161CC
:102600007047334989690143314A916170473049C4
:10261000896981432E4A916170472D49C969814377
:102620002B4AD16170472A49896A0143284A91623D
:102630001146896A8143916270472549C9680143FF
:10264000234AD1601146C9688143D160704720494F
:10265000096901431E4A11611146096981431161EB
:10266000704701201B493431086000200860704722
:1026700001460020164A506820F070400843506020
:10268000704701460020124A506820F0F06008436D
:10269000506070470E48406A40F080700C494862B4
:1026A0000846406A20F0807048627047014608483A
:1026B0008068084008B1012070470020FCE7044909
:1026C00089680143024A9160704700000070004031
:1026D000001002400C0442420020A10710B504463D
:1026E000F948844203D18014FFF7A7FF06E0F748BA
:1026F000844203D14FF40020FFF79FFF10BD0188F3
:1027000041F0400101807047018821F040010180C3
:1027100070470021018041808180C1800181418119
:102720008181C1810721018270470182704702883F
:1027300022F08002028002880A43028070470288E9
:1027400022F03802028002880A4302807047028821
:1027500022F40072028002880A43028070470288D5
:1027600022F00202028002880A4302807047028837
:1027700022F00102028002880A4302807047028828
:1027800022F40062028002880A43028070470288B5
:1027900022F00402028002880A4302807047028805
:1027A00022F44442028002880A430280704710B536
:1027B00004460B4619882046FFF7F1FF598820464A
:1027C000FFF7E5FF99882046FFF7D9FF19892046D2
:1027D000FFF7CDFFD9882046FFF7C1FF5989204672
:1027E000FFF7B5FF99892046FFF7A9FFD989204651
:1027F000FFF79DFF198A2046FFF797FF10BDB1F53F
:10280000807F04D1028842F48072028003E0028853
:1028100022F4807202807047818841F00401818037
:102820007047818821F0040181807047018841F45C
:10283000805101807047018841F400510180704748
:10284000018821F40051018070470246012901D01E
:10285000108B7047908AFCE70146088A7047828B8C
:1028600022F440728283828B0A4382837047818B79
:1028700041F4406181837047818B21F44061818301
:1028800070470021018041808180C18002218160E8
:10289000002181817047828B22F008028283828B23
:1028A0000A43828370472DE9F04786B004460E46FE
:1028B00002274FF000084FF0010A0025A946022E1A
:1028C00001D100BF33E0A08B00F0010010B14FF048
:1028D000020A01E04FF0010A6846FFF7FBFBDDF852
:1028E0000090208C00F4007048B14FEA192000EBF2
:1028F00080004000B0FBF6F0401D85B20AE04FEAD0
:102900004A10B9FBF0F000EB80004000B0FBF6F09D
:10291000401D85B20A20B5FBF0F505F00108A5EBD6
:102920000800C0F34F074FF6FF7000EA0828022F97
:1029300001DBFF2F02DD02274FF00008208C00F49E
:10294000007040EA08003843208406B0BDE8F087F4
:10295000018C21F4007101847047018C41F40071F5
:1029600001847047828B22F007028283828B0A43A4
:1029700082837047828B22F0B0028283828B0A436B
:1029800082837047828B22F440728283828B0A4357
:102990008283704770B505460C4621882846FFF7AC
:1029A000F1FF61882846FFF7E5FFA1882846FFF779
:1029B000D9FFE088012803D12846FFF7CEFF02E0C7
:1029C0002846FFF7C5FF2846A168FFF76CFFA189DD
:1029D0002846FFF760FF70BD82880A4382807047F7
:1029E00082888A438280704782880A438280704747
:1029F00082888A4382807047818170470146888936
:102A00007047024610890840884201D10120704772
:102A10000020FCE7024610292AD006DC012919D043
:102A2000022909D0082930D121E0202921D04029CC
:102A300020D0782929D119E0908800F080008028E2
:102A400006D1108900F00200022801D10120704750
:102A50000020FCE7908800F0400028B1108900F0C9
:102A6000010008B10120F2E70020F0E700BF00BF3D
:102A700000BF00BF908800F0200020B110890840FE
:102A800008B10120E3E70020E1E70020DFE708B517
:102A9000082905D0102907D102898A43028104E060
:102AA0000289D2B2009200E000BF00BF102900D01E
:102AB00003D102898A43028110E0082900D007D19E
:102AC0000289D2B2009209E000300140003C01408E
:102AD0008289D2B200920289D2B2009208BD00006F
:102AE00010B50446EF48844204D14FF48040FFF70C
:102AF000A4FD16E0EC48844204D14FF40030FFF707
:102B0000A6FD0EE0E948844204D14FF40030FFF7FF
:102B100094FD06E0E648844203D14FF48020FFF79D
:102B20008CFD10BD0A460021818A21F440711143B9
:102B3000818270470A460021818921F00C011143EE
:102B4000818170470A460021818921F4C0611143C7
:102B5000818170470A460021018A21F440511143C6
:102B6000018270470A460021818921F48051114376
:102B7000818170472DE9F04786B00446894600BF41
:102B80004FF0000A00BF00BFD046A0466846FFF7DE
:102B9000A1FAC448804505D0C448804502D0C44845
:102BA000804502D1DDF80CA001E0DDF808A00AEBB9
:102BB000CA0000EB0A104FEA8901B0FBF1F664206D
:102BC000B6FBF0F005012809642101FB10673220F3
:102BD00000EB0710B0FBF1F000F00F00054325817A
:102BE00006B0BDE8F08770B505460C46284621685A
:102BF000FFF7C0FFA1882846FFF7B4FFE188284609
:102C0000FFF7A8FF21892846FFF79CFF6189284626
:102C1000FFF790FFA1892846FFF784FF70BD4FF4AE
:102C20001651016000218180C18001810C21418108
:102C30000021818170470A460021018A21F48071B8
:102C40001143018270470A460021018A21F4007174
:102C50001143018270470A460021018A21F48061F4
:102C60001143018270470A460021018A21F4006164
:102C700011430182704730B505460C46218828462D
:102C8000FFF7F1FF61882846FFF7E5FFA188284696
:102C9000FFF7D9FFE1882846FFF7CDFF30BD0021BF
:102CA000018041808180C1807047818941F4005159
:102CB00081817047818921F400518181704770B50D
:102CC000024600230024002500201046C1F34213D1
:102CD00001F01F04012606FA04F5012B01D10C3086
:102CE00004E0022B01D1103000E0143006682E43BE
:102CF000066070BD70B50246002300240025002048
:102D00001046C1F3421301F01F04012606FA04F530
:102D1000012B01D10C3004E0022B01D1103000E076
:102D200014300668AE43066070BD828A0A43828210
:102D30007047828A8A4382827047028A22F00F0299
:102D40000282028A0A4302827047828922F4006268
:102D5000828182890A4382817047818941F0020120
:102D600081817047818921F0020181817047028A47
:102D700022F020020282028A0A4302827047018AFC
:102D800041F4804101827047018A21F4804101822F
:102D90007047C1F308028280704701468888C0F3FB
:102DA00008007047818941F0010181817047028BE1
:102DB000D2B20283028B42EA012202837047028B65
:102DC00002F47F420283028B0A4302837047818AA6
:102DD00041F0200181827047818A21F020018182A7
:102DE0007047818A41F0100181827047818A21F009
:102DF000100181827047818A41F008018182704709
:102E0000818A21F0080181827047828A22F00402BF
:102E10008282828A0A4382827047818A41F002015B
:102E200081827047818A21F00201818270470246C7
:102E30001088084008B1012070470020FCE7CA4311
:102E40000280704730B502460B4600240021002561
:102E5000C3F3421503F01F01012000FA01F1012D17
:102E600002D19089014006E0022D02D1108A014072
:102E700001E0908A01401C12012000FA04F410883D
:102E8000044011B10CB1012030BD0020FCE710B5A9
:102E9000002200230A1201249440A3B2DC430480E0
:102EA00010BD0000003801400044004000500140C7
:102EB0000054014010B50446F748844203D1C014C1
:102EC000FFF7BBFB28E0B4F1804F03D10120FFF7EF
:102ED000BEFB21E0F148844203D10220FFF7B7FB9B
:102EE0001AE0EF48844203D10420FFF7B0FB13E05F
:102EF000EC48844203D10820FFF7A9FB0CE0EA4824
:102F0000844203D11020FFF7A2FB05E0E74884428A
:102F100002D14014FFF791FB10BD0A460021016861
:102F200021F070011143016070470A4600210168D9
:102F300021F44011114301607047016841F4802180
:102F400001607047016821F480210160704781852C
:102F5000704701857047818270470186704721B1B3
:102F6000026842F40062026003E0026822F4006238
:102F70000260704721B1026842F48052026003E0AF
:102F8000026822F480520260704721B1026842F464
:102F90000052026003E0026822F4005202607047AF
:102FA00021B1026842F48042026003E0026822F428
:102FB00080420260704721B1026842F40042026020
:102FC00003E0026822F4004202607047026822F4C3
:102FD0004072026002680A430260704730B50446DE
:102FE0000D46B148844207D069882046FFF795FF17
:102FF000E9882046FFF7EAFFA9882046FFF7A7FFE8
:1030000029882046FFF7A5FFA348844202D0A7489D
:10301000844203D1297A2046FFF79FFF01212046F1
:10302000FFF799FFA048844203D0697A2046FFF752
:1030300096FF994884420BD09C48844208D0B4F152
:10304000804F05D09548844202D09548844203D1F0
:10305000697B2046FFF7AFFFB4F1804F0BD1A97A0F
:103060002046FFF787FFE97A2046FFF78EFF297B8E
:103070002046FFF795FF30BD4FF6FF71818000219C
:103080000180C1804180017241728172C1720173FD
:10309000417381737047818470470146888C704703
:1030A0000146888D70470146088D7047016841F0E0
:1030B000010101607047016821F001010160704762
:1030C0000A460021018B4FF6F77319401143018323
:1030D00070470A460021018B4FF2FF7319404FF6EB
:1030E000FF7303EA02231943018370470A46002154
:1030F000C36999B24FF6F77319401143C161704724
:103100000A460021C36999B24FF2FF7319404FF686
:10311000FF7303EA02231943C16170470A46002185
:10312000B0F854104FF6F77319401143A0F854103B
:1031300070470A460021B0F854104FF2FF7319404F
:103140004FF6FF7303EA02231943A0F854107047A7
:10315000082904D1C26942F48032C26104E019B97D
:10316000C26922F48032C2617047082904D1C26961
:1031700042F40012C26104E019B9C26922F40012DB
:10318000C2617047082904D1C26942F08062C261FD
:1031900004E019B9C26922F08062C2617047016817
:1031A00041F0800101607047016821F080010160F9
:1031B0007047016821F0020101607047016841F029
:1031C00002010160704721B1026842F0040202600E
:1031D00003E0026822F004020260704781827047B7
:1031E000416841F0040141607047416821F00401E9
:1031F00041607047416841F001014160704741689A
:1032000021F00101416070470A46416B6FF30F01E5
:103210001143416370470A46816B6FF30F011143FD
:10322000816370470A46C16B6FF30F011143C1639D
:1032300070470A46016C6FF30F0111430164704738
:10324000A0F858107047A0F85C107047A0F8601004
:103250007047A0F864107047A0F8681070470A46DD
:10326000416B89B241EA0241416370470A46816B72
:1032700089B241EA0241816370470A46C16B89B253
:1032800041EA0241C16370470A46016C89B241EAD2
:103290000241016470470000002C0140000400401E
:1032A00000080040000C00400010004000340140C5
:1032B0000146486B80B270470146886B80B2704708
:1032C0000146C86B80B270470146086C80B27047F7
:1032D0000146B1F8580070470146B1F85C007047EC
:1032E0000146B1F8600070470146B1F864007047CC
:1032F0000146B1F8680070470146486B000C704702
:103300000146886B000C70470146C86B000C704783
:103310000146086C000C70470A46002101894FF6EF
:103320008F73194011430181704770B50C461546E3
:1033300000220021066A26F001060662028B016A5D
:103340004FF60C7632404FF6FF7606EA03162E4310
:103350003243FD4EB0420ED0FC4EB0420BD0B0F125
:10336000804F08D0FA4EB04205D0FA4EB04202D09B
:10337000F94EB04205D121F0020144F0010631437B
:1033800004E021F00A0144F00106314302830162A6
:1033900070BDF0B50C461546002200210026076AD4
:1033A00027F010070762028B016A260140F6FF47EB
:1033B0003A404FF6FF7707EA03373A434FF6FF7775
:1033C00007EA05273A43E04FB8420ED0DF4FB84234
:1033D0000BD0B0F1804F08D0DD4FB84205D0DD4FA3
:1033E000B84202D0DC4FB84205D121F0200146F0AE
:1033F0001007394304E021F0A00144F010073943DD
:1034000002830162F0BDF0B50C4615460022002192
:103410000026076A27F480770762C769BAB2016A93
:1034200026024FF60C773A404FF6FF7707EA03176C
:103430002F433A43C44FB8420ED0C44FB8420BD0CA
:10344000B0F1804F08D0C24FB84205D0C14FB8424A
:1034500002D0C14FB84205D121F4007146F4807703
:10346000394304E021F4206144F480773943C26198
:103470000162F0BDF0B50C46154600220021002681
:10348000076A27F480570762C769BAB2016A260340
:1034900040F6FF473A404FF6FF7707EA05273A43E1
:1034A0004FF6FF7707EA03373A43A74FB8420ED0EB
:1034B000A64FB8420BD0B0F1804F08D0A44FB8420D
:1034C00005D0A44FB84202D0A34FB84205D121F491
:1034D000005146F48057394304E021F4005144F48C
:1034E00080573943C2610162F0BD0A4601894FF23B
:1034F000FF0319404FF6FF7303EA022319430181CA
:1035000070470A4601894CF6FF7319401143018147
:103510007047B1F5004F04D1028942F400420281A4
:1035200003E00289C2F30E020281704701894FF65F
:10353000F872114001817047028B4FF6F3731A4005
:103540000283028B0A4302837047028B4FF2FF33E0
:103550001A400283028B4FF6FF7303EA01231A43DA
:1035600002837047C2694FF6F3731A40C261C269A1
:103570000A43C2617047C2694FF2FF331A40C26109
:10358000C26942EA0122C261704730B504460D4665
:1035900029462046FFF7C0FE208940F00700208121
:1035A00030BDF0B504460D4616461F46602D06D1C7
:1035B0003B46012231462046FFF7EBFE05E03B4645
:1035C000012231462046FFF7B0FE29462046FFF78C
:1035D000A3FE208940F007002081F0BD2DE9F041D5
:1035E0000546884616461F46002439462846FFF7FA
:1035F0007CFF31462846FFF78CFF41462846FFF7FF
:1036000080FF2C894FF6F870044044F007044FF611
:103610008F70044044F070042C81BDE8F081F0B557
:1036200004460F4615461E4631462046FFF75DFF0D
:1036300029462046FFF76DFF39462046FFF761FF18
:10364000208940F480402081F0BD02894FF6F87354
:103650001A40028102890A430281704702894FF6AB
:103660007F731A40028102890A43028170474268CF
:103670003A4B1A40426042680A43426070474168D0
:1036800041F4004141607047416821F400414160CC
:103690007047416841F4002141607047416821F45E
:1036A000002141607047416841F40011416070475A
:1036B000416821F4001141607047416841F4000104
:1036C00041607047416821F4000141607047026821
:1036D00022F00802026002680A430260704700217B
:1036E0004180012181800021C1800181704730B576
:1036F00005460C46208850B92389A288618828464F
:10370000FFF713FEE1882846FFF716FF32E0208816
:1037100004280AD12389A28861882846FFF739FE48
:10372000E1882846FFF711FF24E02088082817D1F8
:103730002389A28861882846FFF765FEE18828462C
:10374000FFF710FF16E00000002C0140003401409C
:103750000004004000080040000C00408FFFFFFE06
:103760002389A28861882846FFF784FEE1882846DD
:10377000FFF701FF30BDF0B505460C4600260127D6
:10378000608808B9022600E00026A088012801D13F
:10379000022700E001272088A0B92389A288618838
:1037A0002846FFF7C2FDE1882846FFF7C5FE2389BA
:1037B0003A4631462846FFF7ECFDE1882846FFF7F8
:1037C000C4FE13E02389A28861882846FFF7E1FD43
:1037D000E1882846FFF7B9FE23893A463146284654
:1037E000FFF7A3FDE1882846FFF7A6FEF0BD10B560
:1037F0000B46016A02249440A14303FA02F42143D8
:10380000016210BD10B50B46016A08249440A14323
:1038100003FA02F42143016210BD026A01238B40C6
:103820001A4302627047026A01238B409A43026284
:103830007047026A04238B401A4302627047026A8F
:1038400004238B409A43026270470246106A084084
:1038500008B1012070470020FCE770B50346002046
:1038600000241846183001259540ACB21D6AE64385
:10387000B6B235401D620AB1082A09D100EB6200D8
:10388000056825F07005056005680D4305600EE0CC
:10389000151FC5F34E052844056825F4E04505606D
:1038A00005684FF6FF7606EA01263543056070BDD0
:1038B0000A460021018B4FF68F7319401143018393
:1038C00070470A460021018B48F6FF7319404FF6F6
:1038D000FF7303EA02231943018370470A4600215C
:1038E000C36999B24FF68F7319401143C161704794
:1038F0000A460021C36999B248F6FF7319404FF692
:10390000FF7303EA02231943C16170470A4600218D
:10391000B0F854104FF68F7319401143A0F85410AB
:1039200070470A460021B0F8541048F6FF7319405A
:103930004FF6FF7303EA02231943A0F854107047AF
:103940000A460021018B4FF6FB7319401143018396
:1039500070470A460021018B4FF6FF3319404FF69E
:10396000FF7303EA02231943018370470A460021CB
:10397000C36999B24FF6FB7319401143C161704797
:103980000A460021C36999B24FF6FF3319404FF63A
:10399000FF7303EA02231943C16170470A460021FD
:1039A000B0F854104FF6FB7319401143A0F85410AF
:1039B00070470A460021B0F854104FF6FF33194003
:1039C0004FF6FF7303EA02231943A0F8541070471F
:1039D0000A460021018B4FF67F7319401143018382
:1039E00070470A460021018BC1F30E014FF6FF73A9
:1039F00003EA02231943018370470A460021C36981
:103A000099B24FF67F7319401143C16170470A465E
:103A10000021C36999B2C1F30E014FF6FF7303EAA7
:103A200002231943C16170470A460021B0F85410BF
:103A30004FF67F7319401143A0F8541070470A469F
:103A40000021B0F85410C1F30E014FF6FF7303EAE2
:103A500002231943A0F854107047F0B505460C46F0
:103A60000027002600212846FFF7DDFE6E682F8B19
:103A70004FF68F7007404FF6FC70074020880743D1
:103A8000218900222846FFF7B2FE608820B100217C
:103A90002846FFF7C2FE03E000212846FFF7C3FED9
:103AA000F748854202D0F748854217D16189002244
:103AB0002846FFF7A7FEA08820B100212846FFF77F
:103AC000B8FE03E000212846FFF7B9FE26F4807611
:103AD00026F40076A0890643E08906436E602F83B2
:103AE000E0886863F0BDF0B505460C460027002667
:103AF00004212846FFF797FE6E682F8B48F6FF706B
:103B000007404FF6FF40074020884FF6FF7101EA5B
:103B100000200743218904222846FFF768FE6088B9
:103B200020B104212846FFF778FE03E0042128464F
:103B3000FFF779FED248854202D0D248854219D19A
:103B4000618904222846FFF75DFEA08820B1042188
:103B50002846FFF76EFE03E004212846FFF76FFEBC
:103B600026F4806626F40066A08946EA8006E0898D
:103B700046EA80066E602F83E088A863F0BDF0B54A
:103B800005460C460027002608212846FFF74BFE75
:103B90006E68E86987B24FF68F7007404FF6FC7089
:103BA000074020880743218908222846FFF71FFE87
:103BB000608820B108212846FFF72FFE03E0082186
:103BC0002846FFF730FEAE48854202D0AD48854218
:103BD00019D1618908222846FFF714FEA08820B178
:103BE00008212846FFF725FE03E008212846FFF7B5
:103BF00026FE26F4805626F40056A08946EA0016D2
:103C0000E08946EA00166E60EF61E088E863F0BD87
:103C1000F0B505460C46002700260C212846FFF784
:103C200002FE6E68E86987B248F6FF7007404FF6FB
:103C3000FF40074020884FF6FF7101EA002007434C
:103C400021890C222846FFF7D2FD608820B10C2183
:103C50002846FFF7E2FD03E00C212846FFF7E3FDCD
:103C6000874885421AD161890C222846FFF7CAFD90
:103C7000A08820B10C212846FFF7DBFD03E00C21D2
:103C80002846FFF7DCFD26F4804626F40036A0899E
:103C900046EA8016E08946EA002607E07948854230
:103CA00004D126F48046A08946EA80166E60EF6152
:103CB000E0882864F0BDF0B504460D4600260027D4
:103CC00010212046FFF7AFFD6768B4F854604FF647
:103CD0008F70064028880643298910222046FFF766
:103CE00086FD688820B110212046FFF796FD03E08D
:103CF00010212046FFF797FD6148844202D06148B9
:103D0000844204D127F48037A88947EA00276760F6
:103D1000A4F85460E888A4F85800F0BDF0B5044653
:103D20000D460026002714212046FFF77CFD67681A
:103D3000B4F8546048F6FF70064028884FF6FF71CB
:103D400001EA00200643298914222046FFF74FFD8F
:103D5000688820B114212046FFF75FFD03E014219D
:103D60002046FFF760FD4648844202D04548844221
:103D700004D127F48027A88947EA80276760A4F840
:103D80005460E888A4F85C00F0BDB0F8441041F439
:103D90000041A0F844107047B0F84410C1F30E0180
:103DA000A0F8441070470021018041808180C180CB
:103DB000018141818181C1817047016841F4803175
:103DC00001607047016821F480310160704701682B
:103DD00041F4003101607047016821F40031016055
:103DE000704721B1026842F48062026003E0026819
:103DF00022F480620260704710B504460B461888B2
:103E00005988084399880843D98808431989084381
:103E10005989084399890843A4F84400987B20B144
:103E200000212046FFF7DDFF03E001212046FFF7D8
:103E3000D8FFD87B18B12046FFF7BFFF02E020462D
:103E4000FFF7C0FF187C18B12046FFF7C0FF02E063
:103E50002046FFF7C1FF10BD002101804180818015
:103E6000C1800181418181818173C1730174704777
:103E700082890A438281704782898A43828170479E
:103E8000002C01400034014010B5024600230024FC
:103E9000106900EA0103908900EA010413B10CB132
:103EA000012010BD0020FCE7CA43026170470246B2
:103EB0001069084008B1012070470020FCE7CA43A0
:103EC0000261704741EA0203A0F8483070478289D6
:103ED0000A438281704782898A43828170474168A0
:103EE00041F0800141607047416821F080014160EC
:103EF0007047F0B50C4615461E46002100220023EF
:103F00000189028B036A4FF6F877394021434FF657
:103F1000FC473A4040F201173A4323F022034FF6A0
:103F2000FF7707EA06172F433B43018102830362B1
:103F3000F0BD10B50022564B1A400B781B064C887A
:103F400043EA44438C8823431A43B0F1804F08D09E
:103F5000504B984205D0504B984202D04F4B98425C
:103F600000D1026710BD10B50022494B1A400B78F2
:103F70001B064C8843EA44438C8823431A43B0F120
:103F8000804F08D0434B984205D0434B984202D013
:103F9000424B984200D1426710BD10B500223C4B05
:103FA0001A400B781B064C8843EA44438C88234311
:103FB0001A43B0F1804F08D0364B984205D0364BAB
:103FC000984202D0354B984200D1826710BD10B59F
:103FD00000222F4B1A400B781B064C8843EA4443BF
:103FE0008C8823431A43B0F1804F08D0294B984264
:103FF00005D0294B984202D0284B984200D1C26785
:1040000010BD10B50022224B1A400B781B064C88BD
:1040100043EA44438C8823431A43214B984202D0FD
:10402000204B984200D1C26610BD016F41F480312F
:1040300001677047016F21F4803101677047416F5C
:1040400041F4803141677047416F21F4803141670D
:104050007047816F41F4803181677047816F21F42F
:10406000803181677047C16F41F48031C16770470B
:10407000C16F21F48031C1677047C16E41F4803156
:10408000C1667047C16E21F48031C166704700007F
:10409000000081C00004004000080040000C004007
:1040A000002C01400034014000204C490860091DEB
:1040B0000860091D0860091D08606FF07F404749CE
:1040C00014310860704710B503460020434819B901
:1040D000104404689C43046010BD10B500223F4AA0
:1040E0003E4B08331B6883433C4C08342360231D3C
:1040F0001B688343241D236010290AD1231F1B68DA
:104100000343241F2360231D1B680343241D2360D6
:1041100004E0324A0A4413680343136010BD10B52B
:104120000A4600212D490B461B6883430C46236039
:104130000B1D1B6883430C1D236011440B68034354
:104140000B6010BD10B5044621792068FFF7E7FF2A
:1041500061792068FFF7C1FF2279A1792068FFF714
:10416000B2FF10BD0021016001710C2141710021DD
:10417000817170471949103109680143174A10329B
:10418000116070470146154814300068084008B1B6
:10419000012070470020FCE7104914310860704787
:1041A00001460E4814300068084028B10B480068EA
:1041B000084008B1012070470020FCE7074914318E
:1041C000086070470549183109680021034A183210
:1041D00011601146096801431160704700040140F5
:1041E000002101607F214160FF2181607047FF2035
:1041F000FA4908607047CA20F849086053200860EF
:10420000704700210022F5481838006800F040008F
:10421000C8B98020F14B183B186000BFEF48183830
:10422000006800F04002491CB1F5005F01D0002A8F
:10423000F4D0EA481838006800F0400008B10120C6
:1042400070470020FCE70120FAE7E44818380068CE
:1042500020F08000E149183908607047DF491C39B7
:10426000096821F04001DD4A1C3A116011460968D5
:10427000014311607047D94A143A1060126842EA4B
:104280000142D64B143B1A607047D4481C38006872
:104290000020D2491C3908604FF6FF70CF49103911
:1042A0000860CF48091F08600020CC490839086021
:1042B000091D0860C94908310860C84918310860FB
:1042C000C64920310860091D0860C44918390860D2
:1042D000C24928310860704710B50022002300242D
:1042E000FFF789FFBD481838006820F02000BB495F
:1042F0001839086000BFB9481838006800F020037A
:10430000521CB2F5004F01D0002BF4D0B34818383E
:10431000006800F0200008B1012400E00024FFF74D
:1043200066FF204610BD70B5002400250026FFF76B
:1043300062FFFFF766FF00B929E00020A749243992
:10434000086042F20110091D0860081D006800F0B5
:104350000700091D086000BFA0481838006800F079
:104360000405641CB4F5005F01D0002DF4D09B4817
:104370001838006800F0040008B9002607E0FFF7CD
:1043800084FFFFF7A9FF08B9002600E00126FFF728
:104390002EFF304670BD10B50024FFF72CFFFFF74D
:1043A00030FF00B90AE08D481C38006840F010006A
:1043B0008A491C390860FFF748FF0124FFF717FFFF
:1043C000204610BD10B50024FFF715FFFFF719FFB9
:1043D00000B90AE081481C38006820F010007F49CD
:1043E0001C390860FFF731FF0124FFF700FF20466A
:1043F00010BD00B5FFF7FFFE78481C38006840F09C
:10440000200076491C390860FFF7F1FE00BD00B5B9
:10441000FFF7F1FE71481C38006800F0DF006F49BB
:104420001C390860FFF7E3FE00BD0021C170017078
:10443000417081707047014600BF080900EB8000A1
:10444000420001F00F001044C0B2704770B506463C
:104450000C460025614824380068624900EA0105DD
:10446000C5F305402070C5F30620607005F07F009D
:10447000A07005F48000000CE0705EB92078FFF7B2
:10448000DAFF20706078FFF7D6FF6070A078FFF742
:10449000D2FFA07070BD5148001D006870470146F2
:1044A000002204E0501CC2B2A1F10A00C1B20A29E4
:1044B000F8DA100741EA106070472DE9F84F074617
:1044C0000E4614461D46DDF828804FF00009CA4606
:1044D0000020009054B14FB9607800F0100010280F
:1044E00004D1607820F010000A306070B7B14CB190
:1044F000E0780004617840EA0120A178084321783F
:1045000040EA413985B328780004697840EA0120FF
:10451000A9780843E97840EA014A25E08CB1E078BF
:10452000FFF7BDFF4FEA004B6078FFF7B8FF4BEA9B
:10453000002BA078FFF7B3FF4BEA000B20784BEA83
:1045400040398DB12878FFF7AAFF4FEA004B687811
:10455000FFF7A5FF4BEA002BA878FFF7A0FF4BEA77
:10456000000BE8784BEA004AFFF745FEB8F1010F6F
:104570000AD11D48006838B900BF1C4800680028EF
:10458000FBD0002019490860FFF73BFE10B900205E
:10459000009060E036B13068FFF760FED6E90110A8
:1045A000FFF769FE2CB1124809EA00000B492039D7
:1045B00008602DB10B480AEA000008492439086058
:1045C000FFF743FE05481C38006800F02000A0B942
:1045D000FFF782FE70B90020009010E02428004010
:1045E000FF007F007F7F7F0014000020100000206C
:1045F0003FFFFF000120009001E001200090B8F192
:10460000010F28D1FD48006810B10020FB49086067
:104610004FF0FF300F21002804DB0A07130EF84A81
:10462000135408E00A074FEA126CF64A00F00F0331
:104630001B1F02F803C000BFF34800680A21B0FB4B
:10464000F1F020F07F40401E4FF0E0214861002053
:10465000886107200861FFF7CAFD0098BDE8F88F60
:1046600001210170817041700021C170704770B5E7
:1046700006460C460025E5480068E54900EA0105C4
:10468000280CE070C5F30420607005F03F00A070B6
:10469000C5F3423020705EB9E078FFF7CCFEE070E1
:1046A0006078FFF7C8FE6070A078FFF7C4FEA070C6
:1046B00070BD2DE9F04105460E461446002745B968
:1046C000D248001D006800F0400050B90020E070A2
:1046D00007E0CE48001D006800F0400008B9002047
:1046E000E07095B120780004617840EA0120A1785B
:1046F0000843E17840EA0140217B40EA0160A1687B
:104700000843616840EA01071BE02078FFF7C7FE15
:104710004FEA00486078FFF7C2FE48EA0028A07818
:10472000FFF7BDFE48EA0008E07848EA0048207B31
:10473000FFF7B5FE48EA0060A1680843616840EAF7
:104740000107FFF758FDB6F5807F03D1AF48183059
:10475000076002E0AD481C300760FFF748FDBDE888
:10476000F0810021C1700170417081708160012170
:1047700001730021416070472DE9F04106460F4664
:1047800014460025B7F5807F03D1A048183005688E
:1047900002E09E481C300568C5F305402070C5F353
:1047A0000620607005F07F00A07005F48000000C0A
:1047B000E070C5F30560207305F08040A06005F04F
:1047C000803060607EB92078FFF735FE2070607819
:1047D000FFF731FE6070A078FFF72DFEA070207B00
:1047E000FFF729FE2073BDE8F08100B50246FFF710
:1047F00002FD8648001D006810438449091D0860B9
:10480000FFF7F5FC012000BD30B50246002300246F
:104810000025FFF7F0FC7D48001D006890437B49B0
:10482000091D086000BF79480830006800EA1224BA
:104830005B1CB3F5005F01D0002CF4D07348083046
:10484000006800EA122008B9012500E00025FFF702
:10485000CEFC284630BD30B503460C460025FFF798
:10486000CAFC44EA0205B3F5807F03D167484030B3
:10487000056002E0654844300560FFF7B8FC30BDD4
:1048800001460020B1F5807F05D1604A40321268B0
:10489000C2F30E0004E05D4A44321268C2F30E0017
:1048A000704700B50246FFF7A6FC5848001D006897
:1048B00020F007005549091D0860084600681043AC
:1048C0000860FFF794FC00BD00B50246FFF793FCBB
:1048D00000BF4E48243000684C490C310968C1F3D0
:1048E0000E018842F5D1494810300260FFF77FFC85
:1048F00000BD46481030006880B2704700B5FFF731
:104900007AFC4248001D006840F480603F49091D60
:104910000860FFF76CFC012000BD10B500220023E9
:104920000024FFF768FC3948001D006820F480600F
:104930003649091D086000BF34480830006800F09F
:104940000403521CB2F5005F01D0002BF4D02F48B5
:104950000830006800F0040008B9012400E00024D9
:10496000FFF745FC204610BD00B503460A46FFF799
:1049700042FC2648001D006820F480202349091DC0
:1049800008600846006808600846006843EA0201BB
:1049900008431E49091D0860FFF729FC00BD1B489C
:1049A000001D006800F48020704708B503460A46E1
:1049B00000200090FFF71FFC1448001D006820F441
:1049C000E0001249091D08600846006843EA020138
:1049D00008430E49091D0860FFF709FC08BD00B532
:1049E000FFF709FC0948001D006840F40000074972
:1049F000091D0860FFF7FBFB00BD0000140000204C
:104A000000E400E018ED00E0000000200428004071
:104A10003FFFFF0000B5FFF7EEFBF948006820F408
:104A20000000F7490860FFF7E2FB00BD00B5024651
:104A3000FFF7E1FBF248006820F40020F04908602D
:104A40000846006810430860FFF7D1FB00BD70B551
:104A500003460C4600260025FFF7CDFBE848001D65
:104A6000006800F4803050B100E06D1CE448001D87
:104A7000006800F4803010B1B5F5805FF5D1E048F2
:104A8000001D006800F4803038B943EA0400104388
:104A9000DB4934310860012600E00026FFF7A7FB60
:104AA000304670BD00B502460023D548006840F688
:104AB000080120EA010342F400600343FFF79BFB77
:104AC000CF480360FFF793FB00BD00B50022CC4840
:104AD000006840F6080120EA0102FFF78CFBC84895
:104AE0000260FFF784FB00BD2DE9F04180460C46D3
:104AF000154600260027C24828300068C14900EA50
:104B00000106BF482C300068BF4900EA0107C6F320
:104B100005402070C6F30620607006F07F00A0708C
:104B200006F48000000CE070380CE870C7F3042035
:104B3000687007F03F00A870C7F342302870B8F1E2
:104B4000000F17D12078FFF776FC20706078FFF710
:104B500072FC6070A078FFF76EFCA0706878FFF7B9
:104B60006AFC6870A878FFF766FCA8702878FFF7E1
:104B700062FC2870BDE8F081A148303000687047C1
:104B80009F494431096821F001019D4A4432116076
:104B900011460968014311607047F0B504460D469F
:104BA00000260027FFF727FB9548001D006800F04E
:104BB000080050B100E0761C9148001D006800F02C
:104BC000080010B1B6F5005FF5D18D48001D0068F2
:104BD00000F0080090B98A48006800F0100058B949
:104BE00044EA0500864924310860FFF775FB08B9DF
:104BF000002704E0012702E0002700E00027FFF77C
:104C0000F6FA3846F0BD00B50246FFF7F4FA7C48E4
:104C1000006810437A490860FFF7E9FA00BD00B563
:104C20000246FFF7E8FA7648006890437449086046
:104C3000FFF7DDFA00BD014600227148001D006843
:104C4000724B00EA030202EA010008B1012070473A
:104C50000020FCE781B241F08001694A121D126810
:104C600002F0800262EA0101654A121D116070477C
:104C7000014600220023B1F5003F05D0B1F5802F99
:104C800002D0B1F5002F07D15D4838300068C0F37D
:104C900007422AB1012303E05948006800EA0103F2
:104CA0005748001D006800EA11121BB190B208B10C
:104CB000012070470020FCE7002101098AB242F080
:104CC00080024F4B1B1D1B6803F0800363EA020246
:104CD0004B4B1B1D1A607047202801D1490102E08F
:104CE000082800D1C900464A3832126840EA010358
:104CF0001A43434B38331A607047414938310968C9
:104D000001433F4A3832116070473D4938310968E4
:104D100081433B4A3832116070473949383109685C
:104D200021F4C051364A38321160114609680143F6
:104D30001160704732493831096821F4E061304A26
:104D400038321160114609680143116070472C49DF
:104D50003831096821F4C041294A383211601146BE
:104D6000096801431160704725483830006840F0F9
:104D70008000234938310860704721483830006886
:104D800020F080001E493831086070471C483830D8
:104D9000006820F400401A4938310860704718480C
:104DA0003830006840F400401549383108607047D9
:104DB0001349383109680143114A3832116070478C
:104DC0000F493831096881430D4A38321160704704
:104DD0000B49383109680143094A3832116070477C
:104DE0000749383109688143054A383211607047F4
:104DF000034A4832431E02EB8302116070470000F1
:104E0000082800407F7F7F003FFFFF007FFF0100F9
:104E100002460349501E01EB8001086870470000FC
:104E20005028004010B54FF08050FDF710FC10BD29
:104E300001207A490862704700207849086270476B
:104E40000120764908617047002074490861704765
:104E500001460020724A106820F438700843106040
:104E60007047B0F5807F06D0B0F5007F0BD0B0F56D
:104E7000806F18D10FE0694AB03211600122674B90
:104E8000C3F8A02010E0654AB43211600122634BE0
:104E9000C3F8A42008E0614AB832116001225F4BD8
:104EA000C3F8A82000E000BF00BF7047B0F5807FC6
:104EB00006D0B0F5007F08D0B0F5806F0FD109E0C3
:104EC0000021564AA03211600AE00021534AA43260
:104ED000116005E00021514AA832116000E000BFD6
:104EE00000BF704701204D49AC3108607047002079
:104EF0004A49AC31086070474A4A126822F00402FD
:104F0000484B1A60012805D11A46126842F0020285
:104F10001A6006E028B9434A126822F00202414BA7
:104F20001A60012901D130BF02E040BF20BF20BF7D
:104F3000704710B502460020394B186820F0030076
:104F400010431860374B1B6843F00403354C236053
:104F5000012901D130BF02E040BF20BF20BF314B4B
:104F60001B6823F004032F4C236010BD00212C4A42
:104F7000116821F003011160926842F00102284B90
:104F80009A60284A126842F00402264B1A600128EF
:104F900001D130BF02E040BF20BF20BF214A1268CC
:104FA00022F004021F4B1A6070471D49096841F442
:104FB00070511B4A11601146096821F0030111600C
:104FC0001146096841F0020111601649096841F073
:104FD0000401144A116000BF00BF012801D130BF95
:104FE00002E040BF20BF20BF704701460C48406828
:104FF000084008B9002070470120FCE7022806D1CC
:105000000749096841EA8001054A116005E0044941
:10501000096841EAC011024A1160704700000E425F
:105020000070004010ED00E002F0CAFB002002F02A
:10503000C6FA4FF47A7001F0DAFF012002F0BFFAED
:105040004FF47A7001F0D3FF00F03AF91F4908706D
:1050500002201F49087000201E4908701E49087070
:105060001E4908711E498870C870487008704871E0
:105070001C494871087108704870C87088700A200F
:10508000887122E01848007808B102F0A9FC17489E
:10509000007808B102F05CF91548007808B102F018
:1050A00092F91448007808B102F0A8F91248007883
:1050B00008B102F0E8F91148007808B102F01CFAD2
:1050C0000F48007808B102F05DFADBE781000020AC
:1050D000A100002088000020890000206D00002031
:1050E0007B00002074000020BC000020290000206C
:1050F0002A0000202B0000202C0000202D00002082
:105100002E00002000B58BB04FF48050FDF76DFAF3
:1051100007210020FBF7B5FD4FF460514FF480608C
:10512000FDF71BF905A8FCF792FD0220059003206E
:10513000069005A9FE48FCF75AFD012005900320C2
:10514000069005A9FB48FCF752FD01A8FBF704FAFD
:1051500000208DF804008DF8050003904FF46020C6
:1051600002900020049001A8FBF7DCF9FBF7FBF9A3
:1051700000BF202240210220FBF768FC0028F8D065
:105180000120FBF734FA00BF0220FBF730FA0128B8
:10519000FAD04FF4A000FBF74EFA0BB000BD70B58B
:1051A000024600231AE0002012E032F81060451C8D
:1051B00032F81550AE4209DD32F81040451C32F885
:1051C000155022F81050451C22F81540451CE8B235
:1051D0004D1EED1A8542E8DC5D1CEBB24D1E9D4272
:1051E000E1DC70BD2DE9F041074600250521384678
:1051F000FBF778FA00213846FBF7BAFA002418E0EA
:105200004FF4A000FBF717FA00BF20220221012073
:10521000FBF71CFC0028F8D0FBF72EFBC64921F851
:1052200014000220FBF72FFC1020FBF72CFC601C65
:10523000C4B20A2CE4DB0A21BF48FFF7B0FF012407
:1052400006E0BD4830F81400284485B2601CC4B2A2
:10525000092CF6DB2846E91705EB5171C1F3CF069F
:105260003046BDE8F08170B52DED068B002400BFFF
:105270000A20FFF7B7FF40F2393148438612304623
:1052800005F029F99FEDAD0B53EC102B05F042F81A
:105290009FEDAC0B53EC102B05F0AEF805F02CF99C
:1052A00085B2212D05DDA5F12100062190FBF1F04D
:1052B000C4B2632C00DD63242046BDEC068B70BDB8
:1052C00010B50120FFF78EFF40F2393148438012BC
:1052D000C0EB4010642190FBF1F0001D9B49088059
:1052E00094481030006800F0200000286CD1084677
:1052F0000088B0F5087F0DDC0846008840F20D21DB
:10530000884207DD01209249087000209149087009
:10531000012010BD8D48008840F23221884218DA01
:105320008A480088B0F5087F13DD8848008840F27D
:105330002621884206DA0120854908700020854927
:10534000087004E000208349087081490870022039
:10535000DFE77E480088B0F5117F0CDA7B480088D3
:1053600040F23221884206DB00207A4908707849F1
:1053700008700320CDE775480088B0F5167F0BDA7A
:1053800072480088B0F5117F06DB00207149087073
:105390006F4908700420BCE76C480088B0F5167FA0
:1053A00006DB00206B490870694908700520B0E7EA
:1053B0006648008840F20D21884272DC0120654970
:1053C000087063490870A4E76048008840F24E21E5
:1053D000884202DA6048007818B1604800780028F6
:1053E0006BD001205D49087058480088B0F5DC7F1B
:1053F0000CDA56480088B0F5D47F07DB0120544909
:105400000870002053490870012082E74F48008847
:10541000B0F5E17F17DA4D480088B0F5DC7F12DB8C
:105420004A480088B0F5DC7F06DA01204849087058
:1054300000204849087004E00020464908704449AB
:105440000870022065E741480088B0F5E87F0BDC72
:105450003E480088B0F5E17F06DB00203D4908703A
:105460003B490870032054E738480088B0F5F07FC6
:105470000BDA36480088B0F5E87F06DD00203549B4
:10548000087033490870042043E730480088B0F5BD
:10549000F07F07DB00202F4908702D490870052098
:1054A00037E777E029480088B0F5D47F72DA012029
:1054B00028490870264908702BE72448008840F2E4
:1054C0004E21884202DB2548007818B12248007836
:1054D00000285FD00120204908701C480088B0F5E2
:1054E000217F0DDC1948008840F27121884207DDD8
:1054F000012017490870002016490870012008E7AC
:105500001248008840F29E21884230DA0F48008815
:10551000B0F5217F2BDD0D48008840F28A218842BA
:105520001EDA01200A49087000200A4908701CE0B0
:105530000038024000340240B00200209A99999944
:105540009999354000000000000059408200002079
:1055500084000020850000201D0000201C00002089
:1055600000204E4908704E4908700220D1E64D488F
:10557000008840F2B62188420DDA4A48008840F29D
:105580009E21884207DB0020444908704449087086
:105590000320BEE629E043480088B0F5337F0CDCE9
:1055A0004048008840F2B621884206DB00203B4993
:1055B00008703B4908700420ABE63A480088B0F513
:1055C000337F06DD00203549087035490870052015
:1055D0009FE63448008840F27121884205DC0120B2
:1055E0002E4908702E49087093E600BF91E670B509
:1055F00002460C460020002300219F232A4D35F847
:105600001350954201DBA02447E0274D35F8105098
:10561000954201DC002440E00DE01D1A0544C5F36D
:105620004701214D35F81150954202DA4D1EEBB27B
:1056300001E04D1CE8B2984204DA1B4D35F81150D8
:105640009542EAD1451EACB2174D05EB400535F841
:10565000025C954221DD144D05EB400535F8025CF6
:10566000AD1A05EB85054FF6FF7606EA45050F4EA8
:1056700035800D4D05EB400535F8025C0A4E36F8D5
:105680001060AD1B094E368896FBF5F5074E358048
:1056900035462D88052D00DB044670BD85000020B1
:1056A0008400002082000020F4A8000824000020CC
:1056B000704700BFFEE700BFFEE700BFFEE700BF88
:1056C000FEE770473948006820B138480068401E3E
:1056D00036490860704710B501213548FEF7D4FB04
:1056E000B0B101213248FEF7DFFB32480078C043F9
:1056F00030490870304801880088401C2E4A1080CC
:10570000042905DB00201146088001202B49087080
:1057100010BD08B540F224412948FDF793FB90B332
:10572000274800882648001D00882648FBF726FCED
:105730002448FBF732FCC0F11400234908606B4693
:10574000084622490268224802F06AFD14211D48D9
:10575000FBF721FC1B48FBF70CFC1A48FBF71DFC70
:1057600014280DD01748FBF709FC18491548FBF71A
:10577000BFFB14211348FBF70EFC1248FBF7F9FBA3
:1057800001201449087008BD10B501211248FEF728
:105790007BFB18B101211048FEF786FB10BD704756
:1057A0007047704770477047704770476800002027
:1057B0000010004028000020600000202900002088
:1057C0000038014030000240C0000020800200206C
:1057D00048030020BC0000200008004000B58BB04A
:1057E0004FF40020FCF70DFF05A8FCF730FA4FF44A
:1057F000304005900220069001200A9005A9F74844
:10580000FCF7F5F9F648FCF769FF6846FCF781FFFD
:105810004FF44040ADF800000420ADF80200002035
:10582000ADF80400ADF80600ADF808004FF40070C4
:10583000ADF80A001020ADF80C008020ADF80E0085
:105840000720ADF810006946E548FCF7B0FF4FF4BB
:105850008071E348FCF7D3FFE148FCF7ECFFE04838
:10586000FCF74DFF4FF4805005900120069000207A
:10587000089005A9D948FCF7BAF94FF48051D748E8
:10588000FCF709FA0BB000BD2DE9F04106460F46C2
:1058900014460025012C04D11102D248FCF7FDF971
:1058A00005E0022C03D1E102CC48FCF7F6F94021D7
:1058B000CB48FDF7A1F800BF00BF8021C848FDF725
:1058C000A0F80128F9D0012C08D12102C548FCF725
:1058D000E2F92102C348FCF7E0F909E0022C07D104
:1058E000E102BE48FCF7D7F9E102BC48FCF7D5F964
:1058F000C021BB48FDF780F800BF00BF8021B84839
:10590000FDF77FF80128F9D000250DE0795DB44856
:10591000FDF772F800BF00BF8021B148FDF771F8B4
:105920000128F9D0681CC5B2102DEFDB012C08D17D
:105930002102AC48FCF7AFF92102AA48FCF7ADF907
:1059400009E0022C07D1E102A448FCF7A4F9E10226
:10595000A248FCF7A2F93146A148FDF74DF800BF77
:1059600000BF80219E48FDF74CF80128F9D0012C9A
:1059700004D121029B48FCF78EF905E0022C03D1EB
:10598000E1029648FCF787F9BDE8F08110B5802860
:1059900026DC0246C31700EB5373C3F3C701C317DA
:1059A00000EB5373DB10A0EBC30343B94A1ED1B223
:1059B0008D4A525C42F080028B4B5A543EE00246C4
:1059C000C31700EB5373DB10A0EBC3035B1E012472
:1059D00004FA03F3844C645C2343834C63542DE04A
:1059E00080282BDDB0F5807F28DCA0F1800290B20A
:1059F0000246C31700EB5373C3F3C701C31700EB91
:105A00005373DB10A0EBC30343B94A1ED1B2774AEC
:105A1000525C42F08002754B5A540FE00246C317A5
:105A200000EB5373DB10A0EBC3035B1E012404FAED
:105A300003F36E4C645C23436C4C635410BD70B52F
:105A40000646002505E06A48405D00B903E0681C91
:105A500085B2FF2DF7DD00BF002404E0305DFFF7C5
:105A600095FF601C84B2AC42F8DB70BD002005E0FD
:105A70005F49095C01B903E0411C88B2FF28F7DDEA
:105A800000BF7047002004E00021594A1154411C16
:105A900088B2FF28F8DD7047002006E00021524A56
:105AA0001154524A1154411CC8B21028F6DB7047F9
:105AB000F0B505460C460A2095FBF0F0C6B20A2068
:105AC00095FBF0F100FB1150C7B2FFF7CFFF034683
:105AD0000A2E15D2DFE806F0051527394B5D6F90C9
